:020000040800F2
:100000001805002001010008FF1300084F13000825
:10001000FD1300086F0700086D17000800000000BE
:100020000000000000000000000000002314000891
:10003000A90700080000000021140008251400088A
:100040001B0100081B0100081B0100081B01000820
:100050001B0100081B0100081B0100081B01000810
:100060001B0100081B0100081B0100081B01000800
:100070001B0100081B0100081B0100081B010008F0
:100080001B0100081B0100081B0100081B010008E0
:100090001B0100081B0100081B0100081B010008D0
:1000A0001B0100081B0100081B0100081B010008C0
:1000B0001B0100081B0100081B0100081B010008B0
:1000C0001B0100081B0100081B0100081B010008A0
:1000D0001B0100081B0100081B0100081B01000890
:1000E0001B0100081B0100081B010008DFF80CD0F1
:1000F00000F00AFB00480047D12000081805002046
:100100000648804706480047FEE7FEE7FEE7FEE7B1
:10011000FEE7FEE7FEE7FEE7FEE7FEE779140008EC
:10012000ED000008202A04DB203A21FA02F0002129
:10013000704721FA02F3D040C2F1200291400843F7
:1001400019467047D2B201E000F8012B491EFBD2DC
:1001500070470022F6E710B513460A4604461946D2
:10016000FFF7F0FF204610BD2DE9FE4F81EA0304A2
:1001700004F0004421F0004100944FF0000B23F004
:10018000004350EA01045ED052EA03045BD0C3F39B
:100190000A54C1F30A552C44A4F2F3340194A0FB91
:1001A0000254C1F3130141F48011C3F3130343F468
:1001B000801301FB024400FB034E840A970A44EAC1
:1001C000815447EA8357A4FB076802958D0A05FB13
:1001D00007854FEA932C04FB0C542705029D4FEA38
:1001E000065847EA1637B5EB08056EEB070C870E85
:1001F000920E47EA811742EA8312A7FB0201B6EB8F
:100200000B0164EB00042B0D43EA0C335E1844EB46
:100210001C50DA465146E7FB0201C5F313044FEACE
:100220000B3343EA14534FEA0432019C43EA0603BA
:10023000A4F10C040294009CCDE900B400F0CFF8C6
:1002400003B0BDE8F08F00200146F9E70EB540F29B
:10025000334102910021CDE900110A460B4600F01E
:10026000BEF803B000BD00F0004230F000400AD0FC
:10027000C10D01F56071C0F3160042EA0151C208D8
:1002800040071143704700200146704701F00043CA
:1002900030B421F0004150EA010206D00A0DA2F567
:1002A0006072C1F31301002A02DC30BC00207047E9
:1002B000440F44EAC104C100E01830BC00EBC25056
:1002C00000F047B830B50B4601460020202201243B
:1002D00009E021FA02F59D4205D303FA02F5491B14
:1002E00004FA02F52844151EA2F10102F1DC30BD2A
:1002F0002DE9F05F0546002092469B46884606465B
:10030000814640241BE02846414647462246FFF7E7
:1003100009FF53465A46C01A914110D31146184658
:10032000224600F003FA2D1A67EB01084F462246D9
:100330000120002100F0FAF917EB00094E41201EC0
:10034000A4F10104DFDC484631462A464346BDE8B5
:10035000F09F0029A8BF7047401C490008BF20F04B
:100360000100704710B4B0FA80FC00FA0CF050EABB
:10037000010404BF10BC704749B1CCF1200421FA3C
:1003800004F411FA0CF118BF012121430843A3EB37
:100390000C01CB1D4FEA00614FEA102042BF002044
:1003A00010BC704700EBC35010440029A4BF10BC20
:1003B0007047401C490008BF20F0010010BC704786
:1003C00010B5141E73F1000408DA401C41F100015D
:1003D00092185B411A4301D120F0010010BD2DE9B4
:1003E000F04D92469B4611B1B1FA81F202E0B0FAAB
:1003F00080F22032904600F099F904460F4640EA18
:100400000A0041EA0B0153465A46084313D01146ED
:1004100053EA010019D0C8F140025046FFF782FEAE
:1004200005460E4650465946424600F07FF90843BD
:1004300005D0012004E020463946BDE8F08D0020BB
:10044000054346EAE0762C4337430A986305E40AFD
:10045000A0EB08000022FD0A44EA47540A3002D506
:1004600000200146E9E7010510196941DDE9084569
:1004700000196941BDE8F04DA2E72DE9FE4F804625
:1004800081EA0300C00F0C46009021F0004123F0E8
:100490000045B8EB0200A94105D2404621469046EE
:1004A0001C460B46024623F00040104347D0270D60
:1004B000C7F30A00C3F30A510290401A0190402882
:1004C0006BDAC3F3130040F4801B0098924620B10E
:1004D0000023D2EB030A63EB0B0B01985946C0F1E2
:1004E0004002504600F022F906460D465046594655
:1004F000019A00F02AF910EB08006141002487EA14
:10050000115284EAE7731A4340D0009A62B3019A09
:10051000012A4FEA075215DC001B61EB02014FF084
:10052000004202EA0752CDE90042001C41F5801169
:1005300032462B46FFF753FF03B0BDE8F08F40462D
:100540002146F9E7001B61EB0201001C41F5801315
:1005500000185B412018A2F5001747EB030140EAA1
:10056000D570B6196D4111E06D084FEA360645EABF
:10057000C0754FEA0752001B61EB0201001C41F5F8
:10058000801149084FEA30000019514132462B468C
:1005900003B0BDE8F04FFFF713BF00980122400001
:1005A0000023D0EB020263EBE073009821464FEA90
:1005B000E074B8EB000061EB0401E9E783F000436D
:1005C0005BE781F0004158E72DE9F04D81EA030433
:1005D00004F0004B21F0004514464FF0000A23F0D0
:1005E000004150EA050220D054EA01021DD0C5F3B3
:1005F0000A570246C5F31303C1F31300C1F30A56A9
:1006000040F4801543F48013A7EB0608101BD64670
:1006100008F2FD3873EB050002D308F1010801E090
:1006200092185B41B8F1000F03DA00200146BDE8E3
:10063000F08D00204FF48011064684460EE0171B13
:1006400073EB050705D3121B63EB050306434CEA66
:10065000010C49084FEA300092185B4150EA01074B
:10066000EDD152EA030012D082EA040083EA0501C8
:10067000084305D0101BAB4106D20122002306E03F
:1006800000224FF0004302E06FF0010253101AEB1A
:1006900006004CEB085110EB0A0041EB0B01BDE8E2
:1006A000F04DFFF78DBEC1F30A52C1F3130140F2C2
:1006B000FF3341F480119A4202DA0020014670476C
:1006C00040F233439A42A2F2334202DC5242FFF735
:1006D00029BD00F02BB8000030B5041E71F10004F4
:1006E00004DB4FF00044404264EB0101141E73F13F
:1006F000000405DB1C464FF00043524263EB040349
:10070000994208BF904230BD064C074D06E0E068B4
:1007100040F0010394E8070098471034AC42F6D348
:10072000FFF7E8FCD0220008F0220008202A04DBB2
:10073000203A00FA02F1002070479140C2F12003F4
:1007400020FA03F3194390407047202A06DBCB17A9
:10075000203A41FA02F043EAE07306E041FA02F37C
:10076000D040C2F120029140084319467047FEE78D
:1007700010B501F091FD0B4C00224FF400412046D2
:1007800000F009F94FF4FA7001F096FC0122022101
:10079000204600F000F91E2001F08EFCBDE810405C
:1007A00001F06ABD001001407047000070B50446BA
:1007B00000F0F6F80546601C02D0044800780444B6
:1007C00000F0EEF8401BA042FAD370BD14000020E8
:1007D0002DE9F84FDFF890A100220AF1040B14462E
:1007E00001274FF00F090BF1040E00BF0B6807FA49
:1007F00004F52B40AB4274D1DFF870C14E68A6EB14
:100800000C0866452BD00DDC032E34D005DC36B346
:10081000012E19D0022E2FD11BE0112E16D0122E30
:100820002AD119E0B8F5881F19D006DCB8F5803F49
:1008300015D0B8F5801F1FD111E0B8F5001F0ED0FC
:10084000B8F5041F18D10AE0CA6815E0CA68121D7D
:1008500012E0CA6808320FE0CA680C320CE08A68FD
:100860002AB1012A4FF0080203D0456104E00422B6
:1008700002E0056100E00022FF2B01D8064601E0FE
:1008800000F104064FEA840501D9A5F12005D6F848
:1008900000C009FA05F82CEA080C02FA05F54CEA42
:1008A000050CC6F800C04D68ED0057D5304DAE6957
:1008B00046F00106AE61AD6924F0030605F00105BE
:1008C00000952C4D06EB050CDCF80850A6074FEA06
:1008D000167809FA08F6B543274EB04202D1002631
:1008E00010E03BE0254EB04201D101260AE0244E43
:1008F000B04201D1022605E0224EB04201D10326CA
:1009000000E0042606FA08F62E43CCF808604D688D
:10091000DAF80060ED03554601D51E4300E09E4322
:100920002E604D68DBF80060AD035D4601D51E43C7
:1009300000E09E432E604D68DEF80060ED027546D3
:1009400001D51E4300E09E432E604D68AD020E4D62
:100950002E6801D51E4300E09E432E60641C102CBF
:10096000FFF444AFBDE8F88F00040140000011100F
:10097000001002400000014000080140000C01404E
:1009800000100140001401400C0401408068084040
:1009900000D0012070470AB1016170470904FBE7EC
:1009A00001488068704700001400002002488168F8
:1009B000027811448160704714000020074810B588
:1009C000016841F010010160032000F067F8002089
:1009D00000F006F800F024F8002010BD00200240CE
:1009E00070B50D4D04464FF47A712878B1FBF0F0E4
:1009F0000A490968B1FBF0F000F0F0FA48B9102C90
:100A000007D200222146501E00F028F800206C601A
:100A100070BD012070BD00001400002020000020E7
:100A20000C4808B5816941F001018161816901F0DB
:100A300001010091C16941F08051C161C06900F0BC
:100A4000805000900448416821F0E06141F000715D
:100A5000416008BD0010024000000140F0B40E4BA0
:100A60001B680C46C3F30223C3F10705042D00D90C
:100A70000425191D072901D2002300E0DB1E0126F1
:100A800006FA05F1491E214099409E40761E164007
:100A90003143F0BC00F0B4BC0CED00E0064900F0BE
:100AA000070208684FF6FF03184040EA0220034A95
:100AB00010430860704700000CED00E00000FA05EC
:100AC0002DE9F047DFF8548105460E46D8F80000BE
:100AD00000F00700B0420CD2D8F8001021F0070156
:100AE0003143C8F80010D8F8000000F00700B04209
:100AF0006FD128684A4C810712D5400703D560683A
:100B000040F4E06060602878000703D5606840F436
:100B1000605060606068A96820F0F0000843606081
:100B20002878C00744D06868012816D021680228B8
:100B300016D0890700294CDA616821F003010143CE
:100B40006160FFF72DFF6968074641F2883001298F
:100B50000ED00229814618D026E021688903E9E7F2
:100B60008901E7E7FFF71CFFC11B494501D918E0E0
:100B700081466068C0F381000128F3D118E000BF0E
:100B8000FFF70EFFC11B49450BD86068C0F3810019
:100B90000228F5D10CE000BFFFF702FFC11B494559
:100BA00002D90320BDE8F087606810F00C0FF3D184
:100BB000D8F80010404601F00701B1420BD9016896
:100BC00021F0070131430160006800F00700B042E6
:100BD00001D00120E6E72878400705D56068E9687C
:100BE00020F4E060084360602878000706D560685C
:100BF000296920F4605040EAC100606000F036F8D6
:100C00006168084AC1F30311515CC8400649086095
:100C10000020FFF7E5FE0020C4E7000000200240AE
:100C200000100240B82200082000002004480549B6
:100C300000684968044AC1F30221515CC84070470A
:100C40002000002000100240C82200080448054986
:100C500000684968044AC1F3C221515CC84070472A
:100C60002000002000100240C822000812A185B018
:100C70000FC98DE80F0014A0144A00680490516851
:100C8000134801F00C03042B10D0082B0ED1C1F334
:100C90008343C9031DF803000AD5516804AAC1F3B0
:100CA0004041515C0A4A5043B0FBF1F005B0704737
:100CB00008494843FAE7000002030405060708094B
:100CC0000A0B0C0D0E0F1010010200000010024064
:100CD00000127A0000093D002DE9F84F0446007823
:100CE000B94DC00748D06868C0F38100012807D01B
:100CF0006868C0F38100022809D16868C00306D57E
:100D00002868800338D5606800286FD034E06068B8
:100D1000B0F5803F0BD010B1B0F5A02F11D02868EE
:100D200020F480302860286820F4802002E02868C1
:100D300040F480302860606888B1FFF731FE0646D5
:100D400009E0286840F480202860F0E7FFF728FEDB
:100D5000801B642875D828688003F7D50CE0FFF75E
:100D60001FFE064605E000BFFFF71AFE801B642841
:100D7000F0D828688003F7D42078944E80074FF08D
:100D800001094FF000083BD5686810F00C0F07D040
:100D90006868C0F38100022809D16868C00306D4DE
:100DA0002868800714D5206901281FD110E0206928
:100DB000B0B1C6F80090FFF7F3FD074605E000BFAD
:100DC000FFF7EEFDC01B0228C4D828688007F7D5BE
:100DD0002868616920F0F80040EAC10028600FE04F
:100DE000C6F80080FFF7DCFD074606E0E9E000BF3B
:100DF000FFF7D6FDC01B022823D828688007F7D448
:100E0000207800072CD57248A169D9B1C0F80090AC
:100E1000FFF7C6FD074604E0FFF7C2FDC01B02282E
:100E20000FD8686A8007F7D56A484FF4FA5100680E
:100E3000B0FBF1F0009000BF0098411E0091FAD283
:100E40000EE080E0C0F80080FFF7AAFD074604E04E
:100E5000FFF7A6FDC01B022875D8686A8007F7D483
:100E60002078400760D5E8690027C00008D4E86909
:100E700040F08050E861E869012700F08050009060
:100E800055480168C90513D40168834641F480714F
:100E90000160FFF785FD824606E000BFFFF780FD99
:100EA000A0EB0A0064284ED8DBF80000C005F5D599
:100EB000E06801280AD008B1052813D0286A20F07C
:100EC00001002862286A20F0040002E0286A40F04D
:100ED00001002862E06841F2883B98B1FFF760FDAD
:100EE00082460BE0286A40F004002862EEE700BF6B
:100EF000FFF756FDA0EB0A0159455AD8286A80072A
:100F0000F6D50CE0FFF74CFD824605E0FFF748FD03
:100F1000A0EB0A0159454CD8286A8007F6D41FB1C6
:100F2000E86920F08050E861E06988B36968C1F33E
:100F30008101022945D00228C6F8608004D0FFF75D
:100F40002FFD044638E034E0FFF72AFD074604E0B1
:100F5000FFF726FDC01B02282BD828688001F7D494
:100F6000206AB0F5803F05D16868A16820F40030A0
:100F700008436860D4E908010843696821F47411E2
:100F800008436860C6F86090FFF70AFD044606E073
:100F900015E000BFFFF704FD001B022809D82868F0
:100FA0008001F7D50BE000BFFFF7FAFC001B022819
:100FB00002D90320BDE8F88F28688001F4D400200E
:100FC000F8E70120F6E7000000100240000042426E
:100FD00080044242200000200070004010B5401EF6
:100FE000B0F1807F01D3012010BD4FF0E02460619B
:100FF0000F21601700F004FA0020A0610720206193
:10100000002010BD30B590F83C20012A20D00122EC
:1010100080F83C20022380F83D3003685C6824F0AF
:1010200070045C6003685C680D682C435C60036856
:101030009C6824F080049C6003689C6849680C43A9
:101040009C6080F83D20002180F83C10084630BDAF
:10105000022030BD10B5040003D094F83D0010B15B
:1010600007E0012010BD002084F83C00204600F07D
:101070000DF8022084F83D00211D206800F020FAC0
:10108000012084F83D00002010BD000008B5006874
:101090000649884208D10648816941F400618161AE
:1010A000806900F40060009008BD0000002C014041
:1010B00000100240022180F83D1001680A6842F0E9
:1010C00001020A60012180F83D100020704770B5D0
:1010D000044690F83C00012817D0012584F83C50C4
:1010E000022084F83D002068826822F0770222F412
:1010F0007F4282600868502837D00DDC202859D004
:1011000005DC88B3102841D151E0022070BD3028A1
:1011100053D040283AD13FE060282ED070280BD021
:10112000B0F5805F03D0B0F5005F2FD110E02068EC
:10113000816821F0070115E0CB68D1E90121206821
:1011400000F0F4F92168886840F0770088601DE0BD
:10115000CB68D1E90121206800F0E8F920688168B6
:1011600041F48041816011E01EE0CA68496820684E
:1011700000F0EEF95021206806E0CA68496820684E
:1011800000F0F7F96021206800F0DAF984F83D50AA
:10119000002084F83C0070BDCA684968206800F0EF
:1011A000D7F940212068EFE700212068ECE7102103
:1011B0002068E9E720212068E6E730212068E3E79E
:1011C00070B5040004D094F83900002510B106E091
:1011D000012070BD84F83850204600F023F8242008
:1011E00084F839002068C16821F40051C1602046AC
:1011F00000F0D2F92068016921F490410161206872
:10120000416921F02A0141612068C16841F400511F
:10121000C160E563202084F8390084F83A0000209A
:1012200070BD000030B585B0002400940194029494
:10123000039400681449884224D11448816941F418
:1012400080418161816901F480410491816941F0AB
:101250000401816180690E4D00F0040004904FF498
:1012600000700090022001900320039069462846F8
:10127000FFF7AEFA2815CDE9000469462846029426
:10128000FFF7A6FA05B030BD00380140001002405B
:10129000000801402DE9F843044690F839001F4644
:1012A00016460D46202850D1A5B19EB194F83800BD
:1012B00001284AD0012084F838004FF00008C4F813
:1012C0003C80212084F83900FFF76AFBA684814620
:1012D000E68426E00120BDE8F883E08C401EE0842F
:1012E000A0684B46B0F5805F4FF000024FF08001E0
:1012F0002046009703D000F007FAE8B90DE000F0AF
:1013000003FAC8B928882168C0F30800486020693A
:1013100008B16D1C05E0AD1C03E0216815F8010B58
:101320004860E08C0028D8D14B460022402120465E
:10133000009700F0E9F908B10320CCE7202084F8F9
:10134000390084F838800020C5E70220C3E7FEE7B3
:1013500000B585B00020019002900390104881698B
:1013600041F010018161816901F0100104918169EE
:1013700041F020018161816901F0200104918169BE
:1013800041F0040181618069694600F00400049025
:101390004FF4004000900348FFF71AFA05B000BD73
:1013A000001002400010014010B586B00024124821
:1013B000009401940294039404940E4905940160EE
:1013C0004721C0E901144FF6FF71C0E903144461DD
:1013D0008461FFF73FFE4FF4805000906946064855
:1013E000FFF775FE049404A903480594FFF70AFE6D
:1013F00006B010BD002C014024000020FEE770471D
:101400000907090E002806DA00F00F0000F1E020BD
:1014100080F8141D704700F1E02080F80014704738
:1014200070477047FFF7C2BA30B58FB028216846C1
:10143000FEF78FFE14210AA8FEF78BFE0121080497
:10144000CDE900100024029402250491CDE9075053
:101450004FF4E01009906846FFF73EFC0F20CDE9FD
:101460000A056802CDE90C4002210AA80E94FFF794
:1014700027FB0FB030BD00000D48016841F00101AD
:10148000016041680B4A1140416001680A4A1140FD
:101490000160016821F480210160416821F4FE01AE
:1014A00041604FF41F0181600449C0030860704728
:1014B000001002400000FFF8FFFFF6FE08ED00E01C
:1014C000F0B50268164B174C174D4FF08047984205
:1014D00005D0B84203D0A04201D0A84203D122F0E7
:1014E00070064A683243984205D0B84203D0A04201
:1014F00001D0A84203D122F44074CA68224322F0EA
:1015000080044A69224302608A68C2620A68826271
:10151000984201D10969016301214161F0BD0000D8
:10152000002C0140000400400008004010B5846811
:1015300042EA032224F47F440A432243826010BD1E
:10154000826822F070020A4342F00701816070470E
:1015500010B5036A046A24F001040462846924F06B
:10156000F00444EA021423F00A020A43846102628E
:1015700010BD10B5036A23F0100303628369046A87
:1015800023F4704343EA023224F0A00343EA01113A
:101590008261016210BD00002DE9F041044600683F
:1015A0000169E26821F44051114301612169A06899
:1015B0000843616908432168CA6841F20C639A4391
:1015C0000243CA6020684169A26921F44071114355
:1015D00041614C4920686425322688423CD1FFF79E
:1015E00035FB00EBC00101EB001061688900B0FB26
:1015F000F1F7FFF72BFB00EBC00101EB0010616876
:10160000B0468900B0FBF1F0B0FBF5F06FF01801C7
:10161000484307EB800106EB0110B0FBF5F000F04A
:10162000F006FFF713FB00EBC00101EB001061684F
:101630008900B0FBF1F0B0FBF5F006EB0016FFF708
:1016400005FB00EBC00101EB001061688900B0FBF5
:10165000F1F7FFF7FBFA3BE0FFF7E8FA00EBC00118
:1016600001EB001061688900B0FBF1F7FFF7DEFACB
:1016700000EBC00101EB00106168B0468900B0FBCF
:10168000F1F0B0FBF5F06FF01801484307EB800173
:1016900006EB0110B0FBF5F000F0F006FFF7C6FA1C
:1016A00000EBC00101EB001061688900B0FBF1F0B4
:1016B000B0FBF5F006EB0016FFF7B8FA00EBC0013F
:1016C00001EB001061688900B0FBF1F7FFF7AEFA9B
:1016D00000EBC00101EB001061688900B0FBF1F084
:1016E000B0FBF5F06FF01801484307EB800108EB01
:1016F0000110B0FBF5F0216800F00F003044886065
:10170000BDE8F081003801402DE9F04198461746C8
:101710000E460446069D1DE0681C1BD02DB1FFF748
:101720003FF9A0EB0800A84214D92068C16821F451
:10173000D071C1602068416921F001014161202020
:1017400084F8390084F83A00002084F83800032037
:10175000BDE8F0812068006836EA000004D000206F
:10176000B842D9D00020F3E70120F9E7FEE70000F6
:101770000FB4084B10B504A902AA039800F0DEF8D4
:10178000044602A9002000F070FC204610BC5DF861
:1017900014FB00006B20000802E008C8121F08C1FB
:1017A000002AFAD170477047002001E001C1121FE2
:1017B000002AFBD1704700002DE9FF5F82B00021B5
:1017C000DDE90430020DDDF840B0034318D044F6E3
:1017D0001050A2F2FF3242431514119801281FD075
:1017E000A5EB0B00401C5FEA000A4FF000064E4FCD
:1017F000DFF83891B046504615D5CAF1000413E021
:10180000119801244AA3012801D16FEA0B01029823
:10181000119AC0E90031C0E9024206B0BDE8F09F6C
:10182000CBF10000DFE704460021404A491842EBB3
:101830000450CDE9001012E0E00707D032463B46E5
:1018400040464946FEF790FC8046894632463B4674
:1018500010461946FEF788FC06460F466410002C19
:10186000EAD1DDE90401DDE90023BAF1000F06DA6F
:10187000FEF77AFC42464B46FEF776FC05E0FEF7A3
:10188000A3FE42464B46FEF79FFE04460E4600224C
:10189000284BFEF721FF03D84FF0FF30014607E049
:1018A0000022254B20463146FEF7E7FDFEF7FBFE02
:1018B000102409E0002C0ADB0A220023FEF718FDA1
:1018C000039B30321A55641E50EA0102F2D1641CA7
:1018D000039AC4F111031444119A012A03D001227E
:1018E00008430DD10AE0084304D000204FF0110B4B
:1018F000119072E7A3EB0B056D1E0DE05B4504DD57
:101900004FF0000205F1010504E003DA4FF0000298
:10191000A5F10105002AECD002981199C0E9023125
:10192000C0E9004579E70000000014400000F03FE6
:10193000300000000000F0430000E03F2DE9FF4FC1
:1019400095B09B468946064600250FE2252877D1AB
:1019500000242746F84A0121059400E0044316F8C4
:10196000013F203B01FA03F01042F7D130782A28DA
:1019700011D06FF02F033078A0F13002092A16D869
:10198000059A44F0020402EB820203EB4202104487
:10199000761C0590EFE759F8042B0592002A03DA2C
:1019A000504244F40054059044F00204761C307810
:1019B0002E2816D116F8010F44F004042A280DD061
:1019C0006FF02F023078A0F13003092B09D807EB14
:1019D000870302EB4303C718761CF3E759F8047B2F
:1019E000761C30786C280FD006DC4C2817D068287D
:1019F0000DD06A2814D104E0742810D07A280FD1B1
:101A00000DE044F400140AE044F4801401E044F4CE
:101A100040147278824202D104F58014761C761C40
:101A2000307866280BD013DC582877D009DC0028E2
:101A300075D04528F6D04628F4D047281AD19DE124
:101A400018E0632835D0642879D0652812D195E153
:101A5000702873D008DC6728F1D069286FD06E2811
:101A60000DD06F2806D1B5E073282CD0752875D01D
:101A7000782874D05A46179990476D1C75E1C4F3C5
:101A80000250022809D003280DD0D9F800100428EC
:101A90000DD00D6009F1040967E1D9F80010EA17CB
:101AA000C1E90052F6E7D9F800100D80F2E70D7099
:101AB000F0E719F8041B8DF8001000208DF80100E4
:101AC000EA46012003E059F804AB4FF0FF3061070C
:101AD0004FF0000102D40DE008F101018846B9423F
:101AE0000FDA8045F8DB1AF808100029F4D108E075
:101AF00008F1010188468142FADB1AF80810002932
:101B0000F6D105985B46A0EB080721463846179AA0
:101B100000F094FA284400EB080507E04DE029E1C5
:101B20000DE01AF8010B5A4617999047B8F10108D1
:101B3000F7D25B4621463846179A13E142E00A2263
:101B40000092C4F302524FF0000A022A08D059F85A
:101B500004CB032A4FEAEC710AD00DE029E02AE019
:101B600009F1070121F00702F2E802C1914609E0FC
:101B70000FFA8CFC4FEAEC71042A03D14FFA8CFC6B
:101B80004FEAEC71002907DA0A460021DCF1000C6B
:101B900061EB02012D2202E0220504D52B228DF8F3
:101BA0000420012203E0E20701D02022F7E790465B
:101BB00059E00A2102E010220DE010214FF0000A46
:101BC00000910BE010224FF0000A44F004040827B3
:101BD000009203E008224FF0000A0092C4F3025280
:101BE000022A05D059F804CB0021032A08D009E0C5
:101BF00009F1070121F00702F2E802C1914605E070
:101C00001FFA8CFC042A01D10CF0FF0C4FF00008E5
:101C1000220728D5702806D0009B83F0100353EAD2
:101C20000A0305D00EE040228DF80420012208E0CE
:101C30005CEA010206D030228DF804208DF8050000
:101C400002229046009B83F0080353EA0A030AD15C
:101C50005CEA010201D1620705D530228DF804202B
:101C60004FF001087F1E582804D034A003900EA81E
:101C700002900DE036A0F9E753466046009AFEF761
:101C800037FB84460398825C0298401E02900270E3
:101C90005CEA0100F0D1029806A9081A00F1200AB6
:101CA000600702D524F4803400E00127574502DDA7
:101CB000A7EB0A0000E0002000EB0A010090059865
:101CC0004144401A0590E00306D45B462146179A2A
:101CD000059800F0B3F90544002706E001A85A462C
:101CE000C05D179990476D1C7F1C4745F6DBE003EC
:101CF0000CD55B462146179A059800F09FF90544DC
:101D000004E030205A46179990476D1C0099481EF0
:101D100000900029F5DC08E0029802995A46007804
:101D2000491C0291179990476D1CBAF10001AAF164
:101D3000010AF1DC65E1000009280100303132338D
:101D400034353637383961626364656600000000F7
:101D500030313233343536373839414243444546E1
:101D60000000000000F058F90544761C3078002887
:101D70007FF4ECAD19B02846BDE8F08F620700D4BF
:101D8000062709F1070222F0070CFCE80223E146CE
:101D900003F000485FEA080C02D00FF2702C0DE04F
:101DA0005FEA045C02D50FF2682C07E05FEAC47CAE
:101DB00002D00FF2602C01E0AFF2700C4FF0FF3850
:101DC00023F00043CDF850C065280CD006DC452830
:101DD00009D046281DD047283DD13DE0662818D0BF
:101DE00067287ED138E00021112F01DB112000E0AF
:101DF000781CCDE9000106A90EA8FFF7DDFCDDE99E
:101E00000F010E9A03910021009207F1010A04913B
:101E10004DE04FF000400097CDE9011006A90EA853
:101E2000FFF7CAFCDDE90F0203920E9B1199002215
:101E3000DDF80CA00093049211B9791C00EB010AA3
:101E4000B7EB0A0004D4C0F1FF3007F1010A049097
:101E5000AAEB0700019044E0012F00DA01270021DE
:101E6000112F01DD112000E03846CDE9000106A95F
:101E70000EA8FFF7A1FCDDE90F010E9A03910021E6
:101E800004910092BA4621070CD40399514500DA17
:101E90008A46BAF1010F05DD009AAAF10101515CF1
:101EA000302908D0B84202DA10F1040F06DA012115
:101EB000CDE9011015E0AAF10101E9E7002805DCF0
:101EC000049901440491AAEB000102E0411C514530
:101ED00000DD8A460499401A401C01904FF00040F2
:101EE0000290200704D40198504501DBCDF804800E
:101EF00000208DF84F0002980DF14F07B0F1004F10
:101F000025D02B200E9002984FF0020800280CDA02
:101F1000404202902D200E9007E00A210298FEF721
:101F2000D1F93031029007F8011DB8F10001A8F194
:101F30000108F2DC02980028EFD1791E0E98087093
:101F4000307800F0200040F0450007F8020D12A89C
:101F5000C01B00F107081498007800B1012000EBC5
:101F60000A01019801EBE07105984144401A401EB6
:101F70000590E00306D45B462146179A059800F0C9
:101F80005DF805441498007818B15A46179990479F
:101F90006D1CE00324D55B462146179A059800F096
:101FA0004DF805441CE00498002807DBDDE9030137
:101FB000884203DD0098405C179901E017993020B2
:101FC0005A469047049805F10105401C0490019879
:101FD000401E019004D12E205A46179990476D1C3F
:101FE000BAF10001AAF1010ADDDC05E017F8010BE6
:101FF0005A46179990476D1CB8F10001A8F10108E5
:10200000F4DC5B462146179A0598ABE62D000000EC
:102010002B000000200000002DE9F04104460025BF
:102020001E461746880404D405E039462020B047F0
:102030006D1C641EF9D52846BDE8F0812DE9F041FC
:10204000044600251E469046C80301D5302700E00F
:102050002027880404D505E041463846B0476D1C6A
:10206000641EF9D52846BDE8F0810A68531C0B6050
:102070001070704770B5282000F01EF80C4D4FF41A
:10208000004421462846FEF781FC50B9502000F05C
:1020900013F821462846FEF779FC10B105490120C6
:1020A000087021462846FEF771FC0028F9D170BD62
:1020B0000010014000000020044900220B685A6211
:1020C00009684A6A8242FCD370470000240000205D
:1020D0001CB5FEF773FCFFF7A7F9FFF739F9FFF717
:1020E00063F9384836490C2201604FF4E131416010
:1020F00000218160C160C0E904128161C161FFF704
:102100005FF830484038FEF7D5FF64231A222EA12D
:102110002C48FFF7BFF8334CDFF8CC90DFF8CC80C9
:102120004FF4FA7AFEF724FBFFF7A4FF00F076F8ED
:10213000607000F073F8A07000F070F8E07000F0CC
:102140006DF8207100F06AF8E0802079E17840EACB
:1021500001206081A178627841EA02262681FEF79B
:1021600075F84F464A464346FDF7FEFFFEF78EF8E8
:102170000546E0603046FEF769F83A464346FDF70B
:10218000F3FFFEF783F82061FEF76DF806460F4671
:102190002846FEF768F802460A480B4614A140306C
:1021A000CDE90067FFF7E4FA064982B264234031C3
:1021B0000448FFF76FF85046FEF7F8FAB2E7000060
:1021C00000380140640000205354415254494E47A6
:1021D0002053454E534F522052454144494E470DDE
:1021E0000A000000000000209A9999999999B93F36
:1021F0002054656D70657261747572652069732015
:10220000252E326620416E642048756D69646974BC
:102210007920697320252E32660D0A002DE9F041E0
:10222000144E00244FF001084FF400473946304661
:10223000FEF7ACFB0028F9D02820FFF73DFF394618
:102240003046FEF7A3FB0028C4F1070108FA01F0AD
:102250000ED02843C5B239463046FEF797FB00281A
:10226000F9D1641CE4B2082CE0D32846BDE8F08123
:102270008543F0E70010014005484FF4004101603C
:1022800000214160816001460248FEF7A1BA0000CA
:10229000080100200010014005484FF40041016092
:1022A000012141600221C16001460248FEF790BA57
:1022B00008010020001001400000000000000000A4
:1022C00001020304060708090000000001020304DC
:1022D000F0220008000000202400000098170008E9
:1022E0001423000824000020F4040000A8170008AC
:1022F00000000000000000000000000000000000DE
:1023000000000000010000001000000000000000BC
:0423100000A24A04D9
:04000005080000ED02
:00000001FF
